:10000000ABC0189501C018950FB617EE12BF7395C7
:1000100080FF0BC00894809B88944795783019F432
:10002000112719BF82600FBE1895713011F4919895
:10003000FACF7A3029F4919A112719BF8160F3CF52
:1000400040FD919A40FF91984695EDCF81E012E0F6
:1000500013BF899A889808958827772712E019BFD7
:1000600080FFFECF0895809BFECF8099FECF13EED8
:1000700012BF12E018BF19BF772781FFFECF8D7F17
:1000800008952FEF2A95F1F71A95D9F7089518E0FA
:10009000331F10F4C69A01C0C698C79A26E02A9565
:1000A000F1F7C79823E02A95F1F71A9589F7089593
:1000B00018E030E0330FB5993160C79A26E02A95F1
:1000C000F1F7C79823E02A95F1F71A9599F7089563
:1000D00000001FED17BBC798063829F0C49A1FEF20
:1000E000D0DFC49804C0C4981FEFCBDFC49A1FEFC1
:1000F000C8DF3CEACCDF33E5CADF0833A9F4A0E26D
:10010000D7DF333599F030E0C2DFC79A26E02A9571
:10011000F1F7C79823E02A95F1F73CEAB8DF33E519
:10012000B6DFAA9569F702C030E0B1DF063811F0FA
:1001300030E0ADDF10E1A5DF089541E48DDF46E555
:100140008BDF42E589DF40E287DF49E485DF43E575
:1001500083DF40E581DF089511271BBF1FEF12BB2E
:10016000C49A17BB18BB72DF78947DDF4B31E9F37B
:10017000443519F478DF042FFDC0433511F4DDDF79
:10018000F4CF463529F441E367DF45E365DFEDCF82
:10019000463729F441E360DF40E35EDFE6CF4437D2
:1001A00059F442E159DF43E157DF48E355DF46E8C0
:1001B00053DF40E051DFD9CF403719F443E54CDF3E
:1001C000D4CF483709F4D6C0493709F4D3C0023137
:1001D00039F0033129F0083319F0063809F0CDC0A1
:1001E000403511F475DFC6C0433479F43CDF06387E
:1001F00009F4C3C038E44BDF362F49DF352F47DF22
:10020000342F45DF10E23DDFB5C04336A1F52BDFCB
:10021000063821F030E43BDF362F05C0362F330F90
:10022000330F330F326033DF352F31DF342F2FDFC1
:1002300010E227DF9FC04235D9F5063821F038E2B9
:1002400026DF362F05C0362F330F330F330F3160C3
:100250001EDF352F1CDF2CDF432FFEDE063809F4AE
:1002600084CF30E214DF362F12DF352F10DF20DF8E
:10027000432FF2DE7ACF413429F4F5DE642FF3DE2A
:10028000542F78C04434B9F6EEDE063821F030EC55
:10029000FEDE362F05C0362F330F330F330F366097
:1002A000F6DE352FF4DE342FF2DE10E2EADE62C035
:1002B000443691F4063821F030EAE9DE362F05C0E5
:1002C000362F330F330F330F3560E1DE352FDFDE8E
:1002D000EFDE432FC1DE49CF4C3431F4063811F044
:1002E000C49A48C0C49846C0453669F43CEACFDE9B
:1002F000063811F030E8CBDE34E0C9DE30E0C7DE8E
:1003000010E3BFDE37C04C36A1F4ADDE3CEABFDE01
:10031000342F063831F03670306EB9DE30E0B7DE9B
:1003200003C0307E3760B3DE30E0B1DE10E3A9DE1B
:1003300021C04337F1F4063801F130E3A8DE30E0A4
:10034000A6DE32E0A4DEB4DE432F86DE30E39FDE9D
:1003500030E09DDE31E09BDEABDE432F7DDE30E31F
:1003600096DE30E094DE30E092DEA2DE432F74DED3
:10037000FCCE03C04DE070DEF8CE4FE36DDEF5CE6F
:00000001FF
